:10000000E3C00000FDC00000FBC00000F9C000001C
:10001000F7C00000F5C00000F3C00000F1C0000010
:10002000EFC00000EDC00000EBC00000AEC6000055
:1000300053C70000E5C00000E3C00000E1C00000BD
:10004000DFC00000DDC00000DBC00000D9C0000040
:10005000D7C00000D5C00000D3C00000B4C300006A
:10006000CFC00000CDC00000CBC00000C9C0000060
:10007000C7C0000012011001020000084123010066
:1000800001000102DC011201100100000008EB0375
:10009000482000000102000109023E00020100C0E8
:1000A00032090400000102020100052400011004CD
:1000B0002402060524060001070582030800FF0943
:1000C000040100020A0000000705040240000107C5
:1000D00005830240000109026500020100C03209E7
:1000E00004000000010100000924010001090001D1
:1000F000010904010002010300000724010001417D
:100100000006240201010006240202020009240361
:100110000103010201000924030204010101000995
:1001200005010240000000000525010101090582CA
:100130000240000000000525010103040309043208
:1001400003410072006400750069006E006F0020BA
:100150000028007700770077002E006100720064AD
:1001600000750069006E006F002E006300630029B7
:1001700000000024036B00750077006100740061CB
:1001800000790040006E0069006600740079002E5E
:100190000063006F006D00000018034100720064EE
:1001A00000750069006E006F00200055006E006F42
:1001B00000000012034D006F0063006F004C0055FB
:1001C000004600410000000011241FBECFEFD2E026
:1001D000DEBFCDBF11E0A0E0B1E0EAE4F6E102C08D
:1001E00005900D92A433B107D9F712E0A4E3B1E072
:1001F00001C01D92A438B107E1F75FD20C94230B24
:10020000FFCE9BB1809589238BB908959BB1982B24
:100210009BB9089530913E01FC0120812F7022305E
:10022000F8F0DC01119641E05D91E32FF0E0E05C35
:10023000FE4F50833F5F3F71413029F4253081F0FC
:100240002F3059F40DC0423041F4223049F02630AD
:1002500039F02C3029F02D3019F04F5F443021F760
:10026000653018F004966450D7CF30933E0108955E
:1002700090916901992331F190916801873F89F448
:10028000E92FF0E0EA5CFE4F8083892F8F5F809337
:1002900068019C5F909336011092690110926A0187
:1002A00063C0E92FF0E0EA5CFE4F80839F5F90938C
:1002B0006801943009F05AC09093360181E0809330
:1002C00068010895883F50F09FE090933601809335
:1002D0003701109238011092390146C087FF0DC0D6
:1002E000803F49F491E0909369018093370182E067
:1002F000809368013BC010926A01E0916A01EE238D
:1003000099F4982F92959F70292F30E027703070C4
:100310002F5F3F4F220F20936A01909360018093DB
:1003200061011092630122C0F0E0DF01AF5DBE4FBA
:100330009C91E170F070E05AFE4F8283892F8F709C
:1003400080936A0197FF14C08091600190916101D0
:10035000A0916201B09163018093360190933701BF
:10036000A0933801B093390181E0089580E00895A9
:1003700080E00895CF92DF92EF92FF920F931F9348
:10038000DF93CF9300D000D0CDB7DEB7789423E0D1
:10039000F22E8E010F5F1F4F98E2D92E82E0E82ED9
:1003A0008091C80087FF0CC0C09035018091CE00BD
:1003B0005FDF8C298093350180E223DFF0926B01AF
:1003C000809135018823A1F087E191E066E371E037
:1003D0000E94AB0A87E191E00E94CC0A109235019D
:1003E00007C0C80164E016DF80E10BDFF0926C010A
:1003F00087E191E0B8010E94E10A882391F780919A
:10040000C80085FF11C080913F0190913E0198176F
:1004100059F0E82FF0E0E05CFE4F90819093CE0021
:100420008F5F8F7180933F01A89B1FC0A89A809116
:100430006B01882359F080916B01815080936B018F
:1004400080916B01882311F480E2E0DE80916C01E1
:10045000882359F080916C01815080936C018091C8
:100460006C01882311F480E1D1DED7D6809134016C
:10047000813009F095CF8091200181508093200137
:10048000882309F08DCFD092200185B18E2585B9C2
:1004900087CFEF92FF920F931F93CF93DF938FB786
:1004A000F89423EF31E03093740220937302309379
:1004B0007602209375028FBF4FB7F8948EE691E0D5
:1004C0009093EF018093EE019093F1018093F001FE
:1004D0004FBF7894E901082FF92E13E09FB7F894E5
:1004E000809177029FBF803811F181E091E0D1D7F0
:1004F00097FD1DC0E0917302F09174028083E0913A
:100500007302F0917402CF0101969093740280936C
:10051000730222E08337920711F4C183D2839FB71D
:10052000F894809177028F5F809377029FBF8FB797
:10053000F894E090F2018FBFA89904C08E2D813607
:1005400008F447C0A89A8091F201882311F180E253
:1005500058DE10936B011DC0E091F001F091F101A4
:100560006191F093F101E093F00121E0EE3EF2079A
:1005700021F40093F001F092F1019FB7F89480917B
:10058000F20181508093F2019FBF81E091E01AD780
:10059000EA94EE2009F780916B01882359F080914D
:1005A0006B01815080936B0180916B01882311F462
:1005B00080E22CDE80916C01882359F080916C01DF
:1005C000815080936C0180916C01882311F480E14B
:1005D0001DDE9FB7F894809177029FBF882319F1A1
:1005E000E0917502F09176029191F0937602E0939A
:1005F000750282E0E337F80721F4C0937502D093C7
:1006000076022FB7F8948091770281508093770219
:100610002FBF8091C80085FFFCCF9093CE0080E172
:10062000F0DD10936C0181E091E024D7F6D556CF30
:1006300084B7877F84BF28E10FB6F89420936000C9
:10064000109260000FBE82E084B98CE085B91A99DF
:1006500012C01092000187E690E09093CD00809345
:10066000CC0086E08093CA001092C8002093C90095
:10067000539A5A9A12C081E0809300011B9905C0D9
:10068000809334011092CC0003C08FE18093CC00A2
:1006900088E18093C9008EE085B984E085BD6AD386
:1006A0008AB180638AB98BB180638BB98091000174
:1006B000882311F45F9A579A0895BADF8091000158
:1006C000813011F457DE01C0E4DE80E090E008954F
:1006D0000895089580910001813019F487E191E037
:1006E00004C781E091E035C680910001882319F4A8
:1006F00081E091E0C4C508950F931F93CF938C01BF
:10070000DC015496EC915497E150E23028F4F0E08B
:10071000EF5CFE4FC08101C0C0E0F80183898230E8
:1007200009F4C860D80155968C915597873031F0FF
:10073000883031F0863029F4C26003C0C46001C043
:10074000C6601092C9001092C8001092CA00F80149
:1007500027853089418952892030F1EE3F07F0E04A
:100760004F07F0E05F0771F0CA01B90196958795D0
:100770007795679560587B47814E9F4F42D72150B0
:10078000304002C020E130E03093CD002093CC0017
:10079000C093CA00F80187859089A189B289803009
:1007A000F1EE9F07F0E0AF07F0E0BF0711F480E043
:1007B00001C082E08093C80088E98093C900CF918E
:1007C0001F910F9108951F920F920FB60F9211244F
:1007D0002F938F939F93EF93FF9380910001882332
:1007E00021F58091CE009EB39430F9F4E091EE01B2
:1007F000F091EF018083E091EE01F091EF01CF01E4
:1008000001969093EF018093EE0121E08E3E9207D6
:1008100021F48EE691E0928381839FB7F8948091D2
:10082000F2018F5F8093F2019FBFFF91EF919F9143
:100830008F912F910F900FBE0F901F901895FC0174
:10084000858580FF02C05F9808955F9A0895923071
:1008500079F09330B1F0913009F041C080910001FE
:10086000813009F032C022E130E0E6E8F0E03BC040
:1008700080910001813071F525E630E0E6EDF0E091
:1008800032C0813049F0813018F0823041F510C01B
:10089000EBE3F1E0249117C080910001813021F455
:1008A000E3E7F1E024910FC0EFE3F1E024910BC006
:1008B00080910001813021F4E3EBF1E0249103C049
:1008C000E9E9F1E0249130E00EC022E130E0E4E714
:1008D000F0E009C02EE330E0E8E9F0E004C020E0F9
:1008E00030E0E0E0F0E0DA011196FC93EE93C9010C
:1008F000089528E030E040E003C04F5F220F331F2F
:1009000028173907D0F3842F8295807F089580932C
:10091000E900EBEEF0E0808181608083EDEEF0E0B5
:1009200010826093EC0040838091EE00881F88273E
:10093000881F08951092F40080E08093E9001092DF
:10094000F0001092E8001092ED009091EB009E7F75
:100950009093EB008F5F853081F7089580917C0242
:1009600087FF11C003C08EB38823B1F08091E800E7
:1009700082FFF9CF8091E8008B778093E80008959B
:100980008EB3882349F08091E80080FFF9CF8091F1
:10099000E8008E778093E800089584E69091EC005B
:1009A00090FF05C09091E80090FF05C01BC090919A
:1009B000E80092FD17C09EB39923B1F09EB3953025
:1009C000A9F09091EB0095FD13C09091E10092FF8A
:1009D000E5CF9091E1009B7F9093E100882351F057
:1009E0008150DCCF80E0089582E0089583E008958F
:1009F00081E0089584E00895AF92BF92DF92EF9274
:100A0000FF920F931F93DF93CF930F92CDB7DEB773
:100A1000082F5B017A019983C0DFD82E9981882342
:100A200031F5192F1CC08091E80085FD10C0809120
:100A3000E8008E778093E800E114F10421F0F701DB
:100A40000995813081F0A9DF882349F00FC0F801B2
:100A500081918F018093F1000894A108B108A1143D
:100A6000B10409F704C075E0D72E01C0D82E8D2D32
:100A70000F90CF91DF911F910F91FF90EF90DF903A
:100A8000BF90AF900895AF92BF92DF92EF92FF9226
:100A90000F931F93DF93CF930F92CDB7DEB7082F3D
:100AA0005B017A01998379DFD82E9981882331F50A
:100AB000192F1CC08091E80085FD10C08091E800CE
:100AC0008B778093E800E114F10421F0F701099598
:100AD000813081F062DF882349F00FC08091F100FE
:100AE000F80181938F010894A108B108A114B10401
:100AF00009F704C015E0D12E01C0D82E8D2D0F901E
:100B0000CF91DF911F910F91FF90EF90DF90BF90F9
:100B1000AF900895282F392FF9018091820290918A
:100B200083028617970718F4BC0190E032C0611564
:100B30007105D9F78091E8008E778093E800F5CFB2
:100B40008091E80083FD37C08091E80082FD2DC0D0
:100B50008EB38823A1F18EB3853079F18091E800BE
:100B600080FF17C08091F20006C091919093F10030
:100B7000615070408F5F6115710511F08830A8F3E6
:100B800091E0883009F090E08091E8008E778093C2
:100B9000E80061157105A1F6992391F606C08EB3A0
:100BA000882369F08EB3853061F08091E80082FF80
:100BB000F6CF80E0089581E0089583E0089582E013
:100BC000089583E00895282F392FC90120918202CA
:100BD000309183022617370718F4B90130E034C08A
:100BE00061157105D9F72091E8002E772093E80070
:100BF000F5CF2091E80023FD39C02091E80022FDC7
:100C00002FC02EB32223B1F12EB3253089F12091CC
:100C1000E80020FF19C02091F20008C0FC010196F5
:100C2000E491E093F100615070402F5F6115710510
:100C300011F0283098F331E0283009F030E02091AD
:100C4000E8002E772093E8006115710591F63323B3
:100C500081F606C08EB3882369F08EB3853061F0CB
:100C60008091E80082FFF6CF80E0089581E008954A
:100C700083E0089582E0089583E008956115710589
:100C800019F51DC02091E80023FD2EC02EB32223AC
:100C900079F12EB3253051F12091E80022FFF2CFF7
:100CA000E82FF92F07C08091F1008193CF016150A7
:100CB000704029F0CF012091F2002223A1F720916A
:100CC000E8002B772093E80061157105D9F606C07E
:100CD0008EB3882369F08EB3853061F08091E8008F
:100CE00080FFF6CF80E0089581E0089583E00895C5
:100CF00082E0089583E0089542D044D01EBA109255
:100D00007A02109279021092780284E089BD89B546
:100D1000826089BD09B400FEFDCF8091D800982F74
:100D20009F779093D80080688093D800809163006B
:100D30008E7F809363008091D8008F7D8093D80050
:100D40008091E0008E7F8093E0008091E1008E7FB3
:100D50008093E1008091E20081608093E2008091C5
:100D6000E100877F8093E1008091E20088608093BA
:100D7000E2000895C1DF81E080937B020895109224
:100D8000E20008951092E10008951F920F920FB6AD
:100D90000F9211242F933F934F935F936F937F9301
:100DA0008F939F93AF93BF93EF93FF938091E10055
:100DB00080FF1BC08091E20080FF17C08091E1009E
:100DC0008E7F8093E1008091E2008E7F8093E2002D
:100DD0008091E20080618093E2008091D80080627F
:100DE0008093D80019BC1EBA74DC8091E10084FFA6
:100DF00029C08091E20084FF25C084E089BD89B5C7
:100E0000826089BD09B400FEFDCF8091D8008F7D3E
:100E10008093D8008091E1008F7E8093E1008091E3
:100E2000E2008F7E8093E2008091E20081608093F7
:100E3000E20080917A02882311F084E001C081E011
:100E40008EBB46DC8091E10083FF27C08091E200E9
:100E500083FF23C08091E100877F8093E10082E0DF
:100E60008EBB10927A028091E1008E7F8093E10028
:100E70008091E2008E7F8093E2008091E2008061A9
:100E80008093E20057DD80E060E042E040DD809149
:100E9000F00088608093F000BFD18091E10082FF74
:100EA0000AC08091E20082FF06C08091E1008B7F42
:100EB0008093E100B1D1FF91EF91BF91AF919F91EC
:100EC0008F917F916F915F914F913F912F910F90F3
:100ED0000FBE0F901F9018951F920F920FB60F9292
:100EE0001124EF92FF920F931F932F933F934F93F1
:100EF0005F936F937F938F939F93AF93BF93EF9382
:100F0000FF93DF93CF930F92CDB7DEB789EEE82E34
:100F1000F12CF70180818770108200EF10E0F8015A
:100F20009081977F90837894898322D0F894F701F9
:100F30001082F8019081986090838981F701808305
:100F40000F90CF91DF91FF91EF91BF91AF919F9162
:100F50008F917F916F915F914F913F912F911F9151
:100F60000F91FF90EF900F900FBE0F901F9018956C
:100F70001F93DF93CF93CDB7DEB7AC970FB6F8943E
:100F8000DEBF0FBECDBFECE7F2E08091F1008193B0
:100F900022E0E438F207C9F780917C0220917D02BB
:100FA000253009F484C0263040F42130A1F12130ED
:100FB00070F0233009F017C12EC0283009F4E9C0C1
:100FC000293009F4F8C0263009F00DC18EC08038F0
:100FD00021F0823809F007C108C080917802909111
:100FE0007902992371F082600CC080918002877031
:100FF0008093E9009091EB0081E095FF80E01092F2
:10100000E9009091E800977F9093E8008093F100C9
:101010001092F100C9C0882319F0823009F0E3C0B2
:1010200090E08F719070009729F08230910509F05F
:10103000DBC00BC080917E02813009F0D5C0233027
:1010400009F080E0809379022CC080917E02882391
:1010500041F520918002277009F4C6C02093E90071
:101060008091EB0080FFC0C080917D02833021F42D
:101070008091EB00806213C08091EB0080618093CF
:10108000EB0081E090E002C0880F991F2A95E2F7FB
:101090008093EA001092EA008091EB0088608093D0
:1010A000EB001092E9008091E800877F80C08823E0
:1010B00009F099C010917E028091E800877F8093AB
:1010C000E8004CDC04C08EB3882309F48DC0809105
:1010D000E80080FFF8CF1F7711F083E001C082E0C5
:1010E0008EBB10681093E3007FC08058823008F0F8
:1010F0007AC080917E0290917F0223E08C3D92071E
:1011000089F583E08C838AE28B833FB7F894DE0114
:10111000159680E090E02EE041E2E22FF0E040936F
:101120005700E49180FF03C0E295EF702F5FEF70EE
:101130005E2F505D5A3308F0595F5C9311961C92F4
:101140001197129601968431910539F73FBF80912E
:10115000E800877F8093E800CE0103966AE270E0A2
:10116000D9DC11C060918002AE014F5F5F4F6FDB31
:10117000BC010097C9F18091E800877F8093E80067
:1011800089819A8120DD8091E8008B778093E80047
:101190002BC0803841F58091E800877F8093E8007C
:1011A00080917A028093F1008091E8008E7780939D
:1011B000E800D4DB19C08823B1F490917E0292300C
:1011C00098F48091E800877F8093E80090937A02FA
:1011D000C5DB80917A02882311F084E001C083E0AE
:1011E0008EBB78DA01C080DA8091E80083FF0AC004
:1011F0008091EB0080628093EB008091E800877F14
:101200008093E800AC960FB6F894DEBF0FBECDBF5A
:10121000CF91DF911F9108950895CF938EB38823C6
:1012200061F0C091E900C7701092E9008091E80078
:1012300083FF01C09DDEC093E900CF9108950F9315
:101240001F93DF93CF9300D0CDB7DEB7182FC9011E
:101250004A8369834EDB69816295660F660F607C05
:101260004A81642B402F4260482B812F50DB0F9026
:101270000F90CF91DF911F910F9108950895CF9313
:10128000DF93EC018091E80083FF60C0888190E0EB
:1012900020918002309181022817390709F056C049
:1012A00080917D02813261F0823220F4803209F037
:1012B0004DC019C0823269F1833209F047C038C08D
:1012C00080917C02813A09F041C08091E800877FDB
:1012D0008093E800CE010F9667E070E01BDC809100
:1012E000E8008B7713C080917C02813279F5809180
:1012F000E800877F8093E800CE010F9667E070E0FA
:10130000BDDCCE01F9D98091E8008E778093E800AA
:101310001DC080917C028132C9F48091E800877FF2
:101320008093E80080917E028D87CE0188DA0DC01F
:1013300080917C02813251F48091E800877F809314
:10134000E800CE0160917E0299DF08DBDF91CF914A
:1013500008950F93CF93DF93EC010D96FC0189E084
:10136000DF011D928A95E9F72A813B8189819C8161
:10137000992311F004E001C000E062E041E05FDF8A
:101380008130D9F42E813F818D819885992311F088
:1013900004E001C000E062E040E051DF813069F428
:1013A0002A853B8589859C85992311F004E001C03D
:1013B00000E063E041E043DF01C080E0DF91CF91D6
:1013C0000F910895DF93CF930F92CDB7DEB7FC0155
:1013D0008EB38430F1F427853089418952892115F3
:1013E000310541055105A9F081818093E900809183
:1013F000E80085FD0AC08091E8008E778093E800C0
:101400006983CBDA6981882329F46093F10080E055
:1014100001C082E00F90CF91DF910895FC018EB35F
:10142000843011F52785308941895289211531058C
:1014300041055105C9F081818093E9008091F20056
:101440008823A1F09091E8008091E8008E77809346
:10145000E80095FD0DC0A1DA882359F49091E800C9
:101460009E779093E800089582E0089580E00895C3
:1014700080E008952EB3243059F4FC01278530898B
:1014800041895289211531054105510509F0C6CF21
:101490000895FC018EB3843021F527853089418978
:1014A00052892115310541055105D9F08581809377
:1014B000E9008091E80082FF14C08091F200882347
:1014C00021F02091F10030E002C02FEF3FEF80913A
:1014D000F200882341F48091E8008B778093E80044
:1014E00002C02FEF3FEFC90108950F931F93CF93D1
:1014F000DF93EC011981112391F02A813B818C81CA
:10150000882311F004E001C000E0C901F2D9402FA6
:10151000482B4260812F61E8FAD98130A1F41D8106
:10152000112399F02E813F818885882311F0C4E032
:1015300001C0C0E0C901DDD94C2F482B4260812F8A
:1015400060E8E5D903C080E001C081E0DF91CF9180
:101550001F910F910895FC01CB012EB32430C1F4EB
:1015600021812093E9002091E80025FF13C064E069
:1015700070E040E050E040DA882369F49091E800A0
:1015800095FD09C09091E8009E779093E80008953A
:1015900082E0089580E008952EB3243071F4FC01B8
:1015A00081818093E9008091F200882341F080914D
:1015B000E8008E778093E800F0C982E0089580E02B
:1015C0000895FC01CB012EB32430B9F4258120937A
:1015D000E9002091E80025FF10C064E070E040E0E1
:1015E00050E051DA8091E80085FD09C08091E80063
:1015F0008B778093E80081E0089580E0089581E092
:101600000895A1E21A2EAA1BBB1BFD010DC0AA1F43
:10161000BB1FEE1FFF1FA217B307E407F50720F05B
:10162000A21BB30BE40BF50B661F771F881F991FD6
:101630001A9469F760957095809590959B01AC011F
:0A164000BD01CF010895F894FFCF1B
:10164A0001000340000004400000020800000000FE
:10165A0000000000000000010240000001400000FC
:10166A0028000003820584078609888A008C000FF7
:04167A008E3020008E
:00000001FF
